:100000000C9412090C942D090C942D090C942D09B3
:100010000C942D090C942D090C942D090C942D0988
:100020000C942D090C942D090C94350F0C94910F00
:100030000C942D090C942D090C942D090C942D0968
:100040000C942D090C942D090C942D090C942D0958
:100050000C942D090C942D090C942D090C942D0948
:100060000C942D090C942D090C942D090C942D0938
:100070000C942D090C942D090C942D090C942D0928
:100080000C942D090C942D090C942D090C942D0918
:100090000C942D090C942D090C942D090C942D0908
:1000A0000C942D090C942D090C942D09840D8C0DA4
:1000B000920D980D9E0DA40DAA0DB00D0000670EB7
:1000C000670E670E670E670E00000000670E0000E7
:1000D000670E670E670E0000670E670E670E670EED
:1000E000670E0000000000000000670E670E670E3C
:1000F000670E670E670E670E670E670E670E670E58
:100100000000670E670E670E670E670E670E670EBC
:10011000670E670E670E670E670E670E0000000021
:10012000670E670E670E670E670E670E670E670E27
:10013000670E670E670E670E670E670E670E670E17
:10014000670E670E670E670E670E670E670E670E07
:10015000670E670E670E670E670E670E670E670EF7
:10016000670E670E00007E0E7E0E7E0E7E0E7E0EE9
:10017000000000007E0E7E0E7E0E7E0E7E0E0000C3
:100180007E0E7E0E7E0E7E0E7E0E000000000000B3
:1001900000007E0E7E0E7E0E7E0E7E0E7E0E670EA2
:1001A000670E670E670E670E7E0E7E0E670E670E79
:1001B000670E670E670E670E7E0E670E670E670E80
:1001C000670E670E00000000670E670E670E670E71
:1001D000670E670E7E0E670E670E670E670E670E60
:1001E0007E0E7E0E670E670E670E670E670E670E39
:1001F0007E0E7E0E7E0E7E0E7E0E7E0E7E0E7E0E9F
:100200007E0E7E0E7E0E7E0E7E0E670E00007E0E31
:100210007E0E7E0E7E0E7E0E000000007E0E7E0E96
:100220007E0E7E0E7E0E00007E0E7E0E7E0E7E0EFA
:100230007E0E0000000000000000670E670E670ED3
:100240000000670E7E0E670E0000670E00000000C3
:1002500000007E0E0000670E670E670E0000670E3E
:100260007E0E670E670E670E0000000000000000A3
:100270000000670E670E670E0000670E7E0E670EA9
:10028000670E670E0000670E00007E0E670E670E99
:10029000670E670E0000670E0000670E670E670EA0
:1002A000670E670E670E670E670E670E670E670EA6
:1002B000670E670E00000000000000000000000054
:1002C000000000000000000000000000000000002E
:1002D000000000000000000000000000000000001E
:1002E0000000000000000000000000000000670E99
:1002F000670E670E670E670E00000000670E670E40
:10030000670E670E670E00000000670E670E670E2F
:10031000670E670E00000000670E670E670E670E1F
:10032000670E00000000670E670E670E670E670E0F
:1003300000000000670E670E670E670E670E000074
:1003400000000000000000000000000000000000AD
:10035000000000000000000000000000000000009D
:10036000000000000000000000000000000000008D
:10037000000000000000000000000000000000007D
:100740000000000000000000000000000000670E34
:10075000670E670E670E670E980E980E670E000004
:10076000670E670E670E0000670E670E670E670E56
:10077000670E0000000000000000670E670E670EA5
:10078000670E670E670E670E670E670E670E670EC1
:100790000000670E670E670E670E670E670E670E26
:1007A000670E670E670E670E670E670E000000008B
:1007B000670E670E670E670E670E670E670E670E91
:1007C000670E670E670E670E670E670E670E670E81
:1007D000670E670E670E670E670E670E670E670E71
:1007E000670E670E670E670E670E670E670E670E61
:1007F000670E670E00007E0E7E0E7E0E7E0E7E0E53
:10080000690D980E7E0E7E0E7E0E7E0E7E0E000010
:100810007E0E7E0E7E0E7E0E7E0E0000000000001C
:1008200000007E0E7E0E7E0E7E0E7E0E7E0E670E0B
:10083000670E670E670E670E7E0E7E0E670E670EE2
:10084000670E670E670E670E7E0E670E670E670EE9
:10085000670E670E00000000670E670E670E670EDA
:10086000670E670E7E0E670E670E670E670E670EC9
:100870007E0E7E0E670E670E670E670E670E670EA2
:100880007E0E7E0E7E0E7E0E7E0E7E0E7E0E7E0E08
:100890007E0E7E0E7E0E7E0E7E0E670E00007E0E9B
:1008A0007E0E7E0E7E0E7E0E690D940E7E0E7E0EE8
:1008B0007E0E7E0E7E0E00007E0E7E0E7E0E7E0E64
:1008C0007E0E0000000000000000670E670E670E3D
:1008D0000000670E7E0E670E0000670E000000002D
:1008E00000007E0E0000670E670E670E0000670EA8
:1008F0007E0E670E670E670E00000000000000000D
:100900000000670E670E670E0000670E7E0E670E12
:10091000670E670E0000670E00007E0E670E670E02
:10092000670E670E0000670EAC0E670E670E670E4F
:10093000670E670E670E670E670E670E670E670E0F
:10094000670E670E000000000000000000000000BD
:100950000000000000000000000000000000000097
:100960000000000000000000000000000000000087
:100970000000000000000000000000000000670E02
:10098000670E670E670E670E00000000670E670EA9
:10099000670E670E670E00000000670E670E670E99
:1009A000670E670E00000000670E670E670E670E89
:1009B000670E00000000670E670E670E670E670E79
:1009C00000000000670E670E670E670E670E0000DE
:1009D0000000000000000000000000000000000017
:1009E0000000000000000000000000000000000007
:1009F00000000000000000000000000000000000F7
:100A000000000000000000000000000000000000E6
:100DD00000000000000000000000000000E7E02C20
:100DE000E1E20202E60028E465004A4D4B4EE100D4
:100DF000000000E55051524F2A1D1B061905002A1C
:100E00001110363738312D041607090A00000B0D72
:100E10000E0F33342B141A081517494C1C180C12DA
:100E2000132F291E1F202122352E2324252627306B
:100E300000000000000000020000000000000000B0
:100E4000000000000000000000000000001D1B0664
:100E50001905000011103637383100041607090A49
:100E600000000B0D0E0F333400141A081517000084
:100E70001C180C12132F00000000000000000000DE
:100E80000000003000000000000000010000000031
:100E90000000000000000000000000626263002803
:100EA000004D004E0000000000595A5B002D00501C
:100EB000514F00000000005C5D5E0057004A524B3D
:100EC00000470000535F60610054003A3B3C3D3EE8
:100ED0003F404142434445550000000000000000EF
:100EE0000000000000000000000000000000000002
:100EF00000000000001D1B06190500000E1036370B
:100F0000380000041516170700000B11080D120019
:100F100000141A09130A00000D0F181C33000000FA
:100F200000000000000000000000000000000000C1
:100F300000000000000000000000000000000000B1
:100F400000000000000000000000000000000000A1
:100F50000000000000000000000000000000000091
:100F60000000000000000000000000000000000081
:100F70000000000000000000000000000000000071
:100F80000000000000000000000000000000000061
:100F90000000000000000000000000000000000051
:100FA0000000000000000000000000000000000041
:100FB0000000000000000000000000000000000031
:100FC0000000000000000000000000000000000021
:100FD0000000000000000000000000000000000011
:100FE0000000000000000000000000000000000001
:100FF00000000000000000000000000000000000F1
:1010000000000000000000000000000000000000E0
:1010100000000000000000000000000000000000D0
:1010200000000000000000000000000000000000C0
:1010300000000000000000000000000000000000B0
:1010400000000000000000000000000000000000A0
:101050000000000000000000000000000000000090
:101060000000000000000000000000000000000080
:101070000000000000000000000000000000000070
:101080000000000000000000000000000000000060
:101090000000000000000000000000000000000050
:1010A0000000000000000000000000000000000040
:1010B0000000000000000000000000000000000030
:1010C0000000000000000000000000000000000020
:1010D0000000000000000000000000000000000010
:1010E0000000000000000000000000000000000000
:1010F00000000000000000000000000000000000F0
:1011000000000000000000000000000000000000DF
:1011100000000000000000000000000000000000CF
:1011200000000000000100000C121200020000ABE1
:10113000112200220000CD113F00210000BD110945
:1011400000030000A71104010309048D1118020314
:10115000090455113636034500720067006F0044DC
:10116000006F00780020006500720067006F006E5D
:10117000006F006D006900630020006B006500795E
:101180000062006F006100720064000000180375C7
:10119000006E0073007000650063006900660069FE
:1011A0000065006400000004030904090222000134
:1011B0000100C032090400000103010100092111EE
:1011C000010001223F000705830308000105010912
:1011D00006A10175019508050719E029E715002505
:1011E00001810295017508810395057501050819AE
:1011F000012905910295017503910395067508155E
:101200000025680507190029688100C01201000245
:1012100000000020501D28600001010200010000B4
:1012200001C1060011241FBECFEFDAE0DEBFCDBF43
:1012300011E0A0E0B1E0E6EEF1E202C005900D920F
:10124000AA31B107D9F712E0AAE1B1E001C01D92BD
:10125000A636B107E1F742D0C4C70C940000209134
:1012600062028091650290913802E0913702222358
:1012700081F02EE0E29FF001112424E5929FE00D21
:10128000F11D1124E80FF11DEE0FFF1FE45BF84F75
:101290000FC02EE0E29FF001112424E5929FE00DA3
:1012A000F11D1124E80FF11DEE0FFF1FE454FF4F55
:1012B00085919491009711F0FC0109940895E091B3
:1012C000C201E81748F0F0E0E81BF109EE0FFF1F3C
:1012D000E75CFD4F8081089580E008952ED18CE079
:1012E00090E0909389008093880090938B00809386
:1012F0008A0090938D0080938C00259A269A279AD5
:1013000062D578D58823E9F38FE790E09093890040
:10131000809388002FE732E440E121503040404084
:10132000E1F700C0000090938B0080938A002FE7C4
:1013300032E440E1215030404040E1F700C000007D
:1013400090938D0080938C002FE732E440E1215090
:1013500030404040E1F700C00000259826982798CB
:10136000909389008093880090938B0080938A00EB
:1013700090938D0080938C008EE0F82E8091140164
:1013800090911501209116013091170130931501AC
:10139000209314019093170180931601D9D01092D5
:1013A000E2018091E201863008F040C010926302B1
:1013B000009163021091E2010E30A0F5E091160158
:1013C000F0911701F19EC0011124800F911DE80FCB
:1013D000F91F208120936202E0911401F091150120
:1013E000E80FF91F3081309361022317A9F0EC0157
:1013F000CD51DE4F222331F080E061DF809338024F
:10140000888303C088818093380210933702009349
:1014100065021092640223DF809163028F5F8093E4
:101420006302C6CF1F5F1093E201BBCFE6D48FE10A
:101430009EE40197F1F700C000008091D80181FF80
:1014400002C0269A01C026988091D80182FF02C06E
:10145000279A01C027988091D8018091D801809166
:10146000C201259826982798882309F487CF809170
:10147000C20180FD279A8091C20181FD269A809148
:10148000C20182FF7BCF259A79CF21E030E0F901BC
:10149000E050FF4F9081911110C091E09083E09156
:1014A000C201EF5FE093C201F0E0EE0FFF1FE75CC7
:1014B000FD4F80832183822F08952F5F3F4F24317A
:1014C000310529F780E00895CF93DF934091C20161
:1014D00091E0A82FB0E0A050BF4F491748F1E92F85
:1014E000F0E0EE0FFF1FE75CFD4F218128131EC0C7
:1014F000292F30E0941781F0E901CC0FDD1FC55C86
:10150000DD4F5881220F331FF901E75CFD4F5083F7
:10151000298121839F5FECCF220F331FF901E75C04
:10152000FD4F108211821C924FEF490F9F5FD5CF64
:101530004093C201DF91CF910895BBD0811104C0C7
:1015400017D0811103C0089581E0089582E00895C5
:10155000CF93DF93EC0176D1811106C0CE0133D059
:10156000882319F082E001C081E0DF91CF910895D6
:10157000CF9321D380E43ED3C82F811120C080E0D7
:1015800039D380E837D38FEF35D32CD314D380E40D
:1015900031D3C82F811113C08CE02CD380E82AD31B
:1015A0008FEF28D31FD307D380E424D3C82F811112
:1015B00006C084E11FD38FEF1DD38FEF1BD312D34F
:1015C0008C2FCF910895BF92CF92DF92EF92FF922E
:1015D0000F931F93CF93DF931F92CDB7DEB78C018C
:1015E000C7DFB82E882379F086E09801295F3F4F46
:1015F000F8011192E217F307E1F78150025F1F4FE4
:101600008111F3CF4AC0C12CD12CEE24E394F12CEC
:10161000D2D280E4EFD282E1EDD2C7010C2C01C01E
:10162000880F0A94EAF78095E5D2DCD2C4D280E430
:10163000E1D283E1DFD2BFD281E4DCD2CE010196D8
:10164000F7D2D0D2898190E0F801EC0DFD1D45E084
:1016500050E09C01042E02C0359527950A94E2F7CC
:101660002170332761E026272170208341505109E2
:101670003E964F3F2FEF520761F76FEFC61AD60A1B
:1016800087E0C816D10409F0C3CF95D280E4B2D266
:1016900082E1B0D28FEFAED2A5D28B2D0F90DF9129
:1016A000CF911F910F91FF90EF90DF90CF90BF905F
:1016B0000895E1E6F0E080E88083108256985E9815
:1016C00024982C9825982698279889EA809380005A
:1016D00089E08093810066D23F9885E08A95F1F792
:1016E0000000579885E08A95F1F70000549885E04E
:1016F0008A95F1F70000559885E08A95F1F700008A
:101700006E9885E08A95F1F70000479A85E08A9502
:10171000F1F700005F9A85E08A95F1F700005C9A86
:1017200085E08A95F1F700005D9A85E08A95F1F7EA
:101730000000769A85E08A95F1F70000879885E0A9
:101740008A95F1F70000869885E08A95F1F7000008
:10175000859885E08A95F1F70000849885E08A9560
:10176000F1F70000819885E08A95F1F700008098F4
:1017700085E08A95F1F70000209885E08A95F1F7D9
:101780000000219885E08A95F1F70000229885E015
:101790008A95F1F70000239885E08A95F1F700001B
:1017A000529885E08A95F1F70000539885E08A9574
:1017B000F1F700003E9885E08A95F1F700008F9AD6
:1017C00085E08A95F1F700008E9A85E08A95F1F719
:1017D00000008D9A85E08A95F1F700008C9A85E0EB
:1017E0008A95F1F70000899A85E08A95F1F7000063
:1017F000889A85E08A95F1F70000289885E08A9517
:10180000F1F70000299885E08A95F1F700002A9801
:1018100085E08A95F1F700002B9885E08A95F1F72D
:1018200000005A9885E08A95F1F700005B9885E002
:101830008A95F1F70000469885E08A95F1F7000057
:1018400080E00895CF93DF93FC01209A85E08A958C
:10185000F1F700008FB18095881F8827881F878344
:101860009FB181E096FB992790F99827958B9FB1BE
:1018700095FB992790F9982793A39FB19295917022
:10188000982791AB9FB196959170982797AF9FB18C
:10189000DF01AA5BBF4F9170982717969C9317970B
:1018A000209895E09A95F1F70000219A95E09A9595
:1018B000F1F700009FB19095991F9927991F908784
:1018C0009FB196FB992790F99827968B9FB195FB2E
:1018D000992790F9982794A39FB192959170982792
:1018E00092AB9FB1EF01C05CDF4F96959170982746
:1018F00098839FB19170982718969C931897219878
:1019000095E09A95F1F70000229A95E09A95F1F703
:1019100000009FB19095991F9927991F91879FB1BA
:1019200096FB992790F99827978B9FB195FB99275C
:1019300090F9982795A39FB192959170982793ABB2
:101940009FB1219696959170982798839FB1917039
:10195000982719969C931997229895E09A95F1F7F4
:101960000000239A95E09A95F1F700009FB19095B9
:10197000991F9927991F92879FB196FB992790F9F4
:101980009827908F9FB195FB992790F9982796A358
:101990009FB192959170982794AB9FB1219696959F
:1019A0009170982798839FB1917098271A969C936D
:1019B0001A97239895E09A95F1F70000529A95E0CE
:1019C0009A95F1F700009FB19095991F9927991F5B
:1019D00093879FB196FB992790F99827918F9FB194
:1019E00095FB992790F9982797A39FB192959170AD
:1019F000982795AB9FB121969695917098279883DB
:101A00009FB1917098271B969C931B97529895E0D5
:101A10009A95F1F70000539A95E09A95F1F7000036
:101A20009FB19095991F9927991F94879FB196FB15
:101A3000992790F99827928F9FB195FB992790F954
:101A4000982790A79FB192959170982796AB9FB1D8
:101A5000219696959170982798839FB191709827B9
:101A60001C969C931C97539895E09A95F1F700006B
:101A70003E9A95E09A95F1F700009FB19095991FD5
:101A80009927991F95879FB196FB992790F99827D9
:101A9000938F9FB195FB992790F9982791A79FB1B4
:101AA00092959170982797AB9FB1EB5BFF4F9695FE
:101AB0009170982790839FB1917089271D968C9380
:101AC0003E9885E08A95F1F7000080E0DF91CF91A4
:101AD00008952CD12FD130D131D132D133D134D15D
:101AE00035D136D137C1962F662309F45AC0462F17
:101AF00050E0FA01E05EF109E830F105B8F5EA5A84
:101B0000FF4F9091E00167C3882311F0916001C0FD
:101B10009E7F9093E0010895882311F09260F9CFA1
:101B20009D7FF7CF882311F09460F3CF9B7FF1CF97
:101B3000882311F09860EDCF977FEBCF882311F0C9
:101B40009061E7CF9F7EE5CF882311F09062E1CFCF
:101B50009F7DDFCF882311F09064DBCF9F7BD9CFAF
:101B6000882311F09068D5CF9F77D3CFEAEDF1E0CD
:101B700020E030E04081882339F041110CC0F901A8
:101B8000E652FE4F90830895491305C0F901E652CD
:101B9000FE4F108208952F5F3F4F3196263031055A
:101BA00049F70895E9EBF0E080818C7F808388E439
:101BB0008093B800089584EA8093BC008091BC00B3
:101BC00087FFFCCF8091B900887F883049F08091F1
:101BD000B900887F803121F08091B900887F089515
:101BE00080E0089584E98093BC008091BC0084FD6E
:101BF000FCCF08958093BB0084E88093BC00809163
:101C0000BC0087FFFCCF8091B900887F883171F0DC
:101C10008091B900887F883249F08091B900887F2F
:101C2000803421F08091B900887F089580E0089584
:101C300024EC2093BC002091BC0027FFFCCF209116
:101C4000BB00FC0120838091B900887F803521F0A2
:101C50008091B900887F089580E00895CF93DF9345
:101C6000C82FD0E0CC0FDD1FCD53DE4F88812CDC98
:101C700019821882DF91CF9108950F931F93CF930C
:101C80009091650220913802E09137023EE0E39F97
:101C9000F001112434E5239FE00DF11D1124E90F1B
:101CA000F11DE452F24FC491082F10E0000F111FF4
:101CB0000D531E4FF801808107DC8C2FE6DB90E08E
:101CC000F80191838083CF911F910F9108958091A6
:101CD000650290913802E09137022EE0E29FF00118
:101CE000112424E5929FE00DF11D1124E80FF11D50
:101CF000E452F24F649180916202F5CE80916402C9
:101D00008F5F80936402DBDA8093380290916502E2
:101D1000E09137022EE0E29FF0011124E90FF11D5E
:101D2000ED51FE4F80839BCA81E0A7CF81E096CF23
:101D300082E0A3CF82E092CF83E090CF84E08ECF89
:101D400085E08CCF86E08ACF87E088CF88E086CF99
:101D500089E084CF8AE082CFF89481E08093E0002C
:101D600080E28093D800E9ECF0E010828FE19EE4FD
:101D70000197F1F700C000001DBA109268001CBC6A
:101D800010BE1FBA10927A0010926E0010926F006F
:101D900010927100109272001082ECEBF0E0108251
:101DA00014B817B81AB81DB810BA108215B818B8F8
:101DB0001BB81EB811BA0C94003F08958091E8003A
:101DC00080FFFCCF089581E08093D70080EA809364
:101DD000D80082E189BD09B400FEFDCF80E980937F
:101DE000D8001092E0001092E1018CE08093E200B4
:101DF000789408958091E10108958091E101811125
:101E000002C08FEF08958FB7F89493E09093E900A4
:101E10009091E4009E5C23E03091E80035FD0EC017
:101E20008FBF8091E101882361F38091E4008917DD
:101E300041F38FB7F8942093E900EECF9091E00141
:101E40009093F1001092F100EAEDF1E096E09E0F20
:101E500021912093F1009E13FBCF9AE39093E80029
:101E60001092D9018FBF80E008951F920F920FB694
:101E70000F9211248F939F93EF93FF938091E10032
:101E80001092E10083FF0FC01092E90091E090935F
:101E9000EB001092EC0092E29093ED0098E09093AA
:101EA000F0001092E10182FF33C08091E1018823AC
:101EB00079F180911801882359F18091D7018F5FC2
:101EC0008093D701837021F583E08093E9008091AE
:101ED000E80085FF1DC08091D9018F5F8093D901F3
:101EE00090911801891314C01092D9018091E001DA
:101EF0008093F1001092F100EAEDF1E086E08E0FA0
:101F000091919093F1008E13FBCF8AE38093E800C8
:101F1000FF91EF919F918F910F900FBE0F901F90A7
:101F200018951F920F920FB60F921124EF92FF9205
:101F30000F931F932F933F934F935F936F937F93D1
:101F40008F939F93AF93BF93EF93FF93CF93DF93C1
:101F50001F92CDB7DEB71092E9008091E80083FFB1
:101F60001FC19091F1008091F1003091F10020911A
:101F7000F100E32EF12CF22A0091F1002091F10002
:101F800010E0122B2091F1006091F10032EF3093BC
:101F9000E800863009F046C037E084E291E1FC01B8
:101FA000459154914E155F0539F4FC0132964591E7
:101FB00054914017510721F00796315081F7F0C036
:101FC000FC01349645915491FC013696849130E0A1
:101FD000362B2F3F310519F010F02FEF30E0281786
:101FE00008F4822F3EEF9091E800292F2570D9F355
:101FF00092FDD9C0982F813208F090E2FA01292F82
:10200000222331F064916093F10021503196F8CF92
:10201000490F511D891B3093E8008111E4CF9032A4
:1020200011F3C1C0853049F48EEF8093E800C6DE1D
:102030008E2D80688093E300B6C0893039F5911108
:102040006AC0E092E1018EEF8093E80041E08EE10A
:1020500092E14093E9009C012F5F3F4FFC015491B6
:102060005093EB00552359F0F90124912093EC0093
:102070009C012D5F3F4F319684918093ED004F5F1F
:10208000453011F0C901E5CF8EE140C0883039F408
:10209000903809F040C092DE8091E1015FC081116B
:1020A00015C099838BDE9981923851F40093E90031
:1020B0008091EB0085FB882780F91092E90001C030
:1020C00080E08093F1001092F10066C0282F2D7FF0
:1020D000213009F59230F9F4EF2809F061C00F774B
:1020E0009FEF900F943008F05BC09EEF9093E80054
:1020F0000093E900833009F453C089E18093EB0039
:1021000081E090E001C0880F0A95EAF78093EA0029
:102110001092EA0048C0012B09F042C0913A09F53B
:10212000813089F44BDE8091E0018093F1001092C0
:10213000F100EAEDF1E086E08E0F91919093F100CD
:102140008E13FBCF29C0823021F438DE8091180134
:1021500005C0833029F532DE809119018093F100AA
:102160001BC09132E9F4893061F48091E80082FF6C
:10217000FCCF8091F1008093D8018BEF8093E80031
:102180000BC08A3029F4F09218011092D90104C0D2
:102190008B3031F4E09219018EEF8093E80003C098
:1021A00081E28093EB000F90DF91CF91FF91EF914F
:1021B000BF91AF919F918F917F916F915F914F915F
:1021C0003F912F911F910F91FF90EF900F900FBEB5
:1021D0000F901F901895EE0FFF1F0590F491E02DC2
:0621E0000994F894FFCF02
:1021E60001000000000000000000000000000000E8
:0A21F600000000001A016E017D01D7
:00000001FF
